{
  "_format": "hh-sol-artifact-1",
  "contractName": "OrganizationFactory",
  "sourceName": "contracts/OrganizationFactory.sol",
  "abi": [
    {
      "anonymous": false,
      "inputs": [
        {
          "indexed": true,
          "internalType": "address",
          "name": "organizationContract",
          "type": "address"
        },
        {
          "indexed": false,
          "internalType": "string",
          "name": "name",
          "type": "string"
        }
      ],
      "name": "OrganizationCreated",
      "type": "event"
    },
    {
      "inputs": [
        {
          "internalType": "string",
          "name": "name",
          "type": "string"
        },
        {
          "internalType": "address",
          "name": "ercToken",
          "type": "address"
        }
      ],
      "name": "createOrganization",
      "outputs": [],
      "stateMutability": "nonpayable",
      "type": "function"
    },
    {
      "inputs": [],
      "name": "getOrganizations",
      "outputs": [
        {
          "internalType": "address[]",
          "name": "",
          "type": "address[]"
        }
      ],
      "stateMutability": "view",
      "type": "function"
    },
    {
      "inputs": [
        {
          "internalType": "uint256",
          "name": "",
          "type": "uint256"
        }
      ],
      "name": "organizations",
      "outputs": [
        {
          "internalType": "address",
          "name": "",
          "type": "address"
        }
      ],
      "stateMutability": "view",
      "type": "function"
    }
  ],
  "bytecode": "0x6080604052348015600f57600080fd5b50612b728061001f6000396000f3fe608060405234801561001057600080fd5b50600436106100415760003560e01c806369cbf44f146100465780639754a3a814610062578063e792dd8a14610080575b600080fd5b610060600480360381019061005b9190610434565b6100b0565b005b61006a6101a2565b604051610077919061054e565b60405180910390f35b61009a600480360381019061009591906105a6565b610230565b6040516100a791906105e2565b60405180910390f35b60008233836040516100c19061026f565b6100cd9392919061067c565b604051809103906000f0801580156100e9573d6000803e3d6000fd5b5090506000819080600181540180825580915050600190039060005260206000200160009091909190916101000a81548173ffffffffffffffffffffffffffffffffffffffff021916908373ffffffffffffffffffffffffffffffffffffffff1602179055508073ffffffffffffffffffffffffffffffffffffffff167f24263c0109cf7104ef63652d3f39851af27bcd2f3a7005e88b226b92e2f1e3d18460405161019591906106ba565b60405180910390a2505050565b6060600080548060200260200160405190810160405280929190818152602001828054801561022657602002820191906000526020600020905b8160009054906101000a900473ffffffffffffffffffffffffffffffffffffffff1673ffffffffffffffffffffffffffffffffffffffff16815260200190600101908083116101dc575b5050505050905090565b6000818154811061024057600080fd5b906000526020600020016000915054906101000a900473ffffffffffffffffffffffffffffffffffffffff1681565b612460806106dd83390190565b6000604051905090565b600080fd5b600080fd5b600080fd5b600080fd5b6000601f19601f8301169050919050565b7f4e487b7100000000000000000000000000000000000000000000000000000000600052604160045260246000fd5b6102e38261029a565b810181811067ffffffffffffffff82111715610302576103016102ab565b5b80604052505050565b600061031561027c565b905061032182826102da565b919050565b600067ffffffffffffffff821115610341576103406102ab565b5b61034a8261029a565b9050602081019050919050565b82818337600083830152505050565b600061037961037484610326565b61030b565b90508281526020810184848401111561039557610394610295565b5b6103a0848285610357565b509392505050565b600082601f8301126103bd576103bc610290565b5b81356103cd848260208601610366565b91505092915050565b600073ffffffffffffffffffffffffffffffffffffffff82169050919050565b6000610401826103d6565b9050919050565b610411816103f6565b811461041c57600080fd5b50565b60008135905061042e81610408565b92915050565b6000806040838503121561044b5761044a610286565b5b600083013567ffffffffffffffff8111156104695761046861028b565b5b610475858286016103a8565b92505060206104868582860161041f565b9150509250929050565b600081519050919050565b600082825260208201905092915050565b6000819050602082019050919050565b6104c5816103f6565b82525050565b60006104d783836104bc565b60208301905092915050565b6000602082019050919050565b60006104fb82610490565b610505818561049b565b9350610510836104ac565b8060005b8381101561054157815161052888826104cb565b9750610533836104e3565b925050600181019050610514565b5085935050505092915050565b6000602082019050818103600083015261056881846104f0565b905092915050565b6000819050919050565b61058381610570565b811461058e57600080fd5b50565b6000813590506105a08161057a565b92915050565b6000602082840312156105bc576105bb610286565b5b60006105ca84828501610591565b91505092915050565b6105dc816103f6565b82525050565b60006020820190506105f760008301846105d3565b92915050565b600081519050919050565b600082825260208201905092915050565b60005b8381101561063757808201518184015260208101905061061c565b60008484015250505050565b600061064e826105fd565b6106588185610608565b9350610668818560208601610619565b6106718161029a565b840191505092915050565b600060608201905081810360008301526106968186610643565b90506106a560208301856105d3565b6106b260408301846105d3565b949350505050565b600060208201905081810360008301526106d48184610643565b90509291505056fe608060405234801561001057600080fd5b50604051612460380380612460833981810160405281019061003291906102f7565b82600090816100419190610587565b5081600260006101000a81548173ffffffffffffffffffffffffffffffffffffffff021916908373ffffffffffffffffffffffffffffffffffffffff16021790555080600160006101000a81548173ffffffffffffffffffffffffffffffffffffffff021916908373ffffffffffffffffffffffffffffffffffffffff1602179055506001600360008473ffffffffffffffffffffffffffffffffffffffff1673ffffffffffffffffffffffffffffffffffffffff16815260200190815260200160002060006101000a81548160ff021916908315150217905550505050610659565b6000604051905090565b600080fd5b600080fd5b600080fd5b600080fd5b6000601f19601f8301169050919050565b7f4e487b7100000000000000000000000000000000000000000000000000000000600052604160045260246000fd5b61018b82610142565b810181811067ffffffffffffffff821117156101aa576101a9610153565b5b80604052505050565b60006101bd610124565b90506101c98282610182565b919050565b600067ffffffffffffffff8211156101e9576101e8610153565b5b6101f282610142565b9050602081019050919050565b60005b8381101561021d578082015181840152602081019050610202565b60008484015250505050565b600061023c610237846101ce565b6101b3565b9050828152602081018484840111156102585761025761013d565b5b6102638482856101ff565b509392505050565b600082601f8301126102805761027f610138565b5b8151610290848260208601610229565b91505092915050565b600073ffffffffffffffffffffffffffffffffffffffff82169050919050565b60006102c482610299565b9050919050565b6102d4816102b9565b81146102df57600080fd5b50565b6000815190506102f1816102cb565b92915050565b6000806000606084860312156103105761030f61012e565b5b600084015167ffffffffffffffff81111561032e5761032d610133565b5b61033a8682870161026b565b935050602061034b868287016102e2565b925050604061035c868287016102e2565b9150509250925092565b600081519050919050565b7f4e487b7100000000000000000000000000000000000000000000000000000000600052602260045260246000fd5b600060028204905060018216806103b857607f821691505b6020821081036103cb576103ca610371565b5b50919050565b60008190508160005260206000209050919050565b60006020601f8301049050919050565b600082821b905092915050565b6000600883026104337fffffffffffffffffffffffffffffffffffffffffffffffffffffffffffffffff826103f6565b61043d86836103f6565b95508019841693508086168417925050509392505050565b6000819050919050565b6000819050919050565b600061048461047f61047a84610455565b61045f565b610455565b9050919050565b6000819050919050565b61049e83610469565b6104b26104aa8261048b565b848454610403565b825550505050565b600090565b6104c76104ba565b6104d2818484610495565b505050565b5b818110156104f6576104eb6000826104bf565b6001810190506104d8565b5050565b601f82111561053b5761050c816103d1565b610515846103e6565b81016020851015610524578190505b610538610530856103e6565b8301826104d7565b50505b505050565b600082821c905092915050565b600061055e60001984600802610540565b1980831691505092915050565b6000610577838361054d565b9150826002028217905092915050565b61059082610366565b67ffffffffffffffff8111156105a9576105a8610153565b5b6105b382546103a0565b6105be8282856104fa565b600060209050601f8311600181146105f157600084156105df578287015190505b6105e9858261056b565b865550610651565b601f1984166105ff866103d1565b60005b8281101561062757848901518255600182019150602085019450602081019050610602565b868310156106445784890151610640601f89168261054d565b8355505b6001600288020188555050505b505050505050565b611df8806106686000396000f3fe608060405234801561001057600080fd5b50600436106100cf5760003560e01c8063704802751161008c578063943e821611610066578063943e821614610227578063d22ab49714610243578063e8abfd9414610273578063fc0c546a146102a3576100cf565b806370480275146101bd57806378933ef1146101d95780638da5cb5b14610209576100cf565b806306fdde03146100d45780631186eb7c146100f25780631785f53c146101255780631bf4061e146101415780633b7bed6e14610171578063429b62e51461018d575b600080fd5b6100dc6102c1565b6040516100e99190611155565b60405180910390f35b61010c600480360381019061010791906111c1565b61034f565b60405161011c9493929190611218565b60405180910390f35b61013f600480360381019061013a91906112c2565b610424565b005b61015b600480360381019061015691906112ef565b61059b565b604051610168919061132f565b60405180910390f35b61018b600480360381019061018691906114ab565b610662565b005b6101a760048036038101906101a291906112c2565b6107da565b6040516101b4919061132f565b60405180910390f35b6101d760048036038101906101d291906112c2565b6107fa565b005b6101f360048036038101906101ee919061153f565b610924565b604051610200919061157f565b60405180910390f35b6102116109d6565b60405161021e91906115a9565b60405180910390f35b610241600480360381019061023c919061153f565b6109fc565b005b61025d600480360381019061025891906112ef565b610e90565b60405161026a919061163b565b60405180910390f35b61028d600480360381019061028891906112ef565b610fe5565b60405161029a919061157f565b60405180910390f35b6102ab61109f565b6040516102b891906115a9565b60405180910390f35b600080546102ce90611685565b80601f01602080910402602001604051908101604052809291908181526020018280546102fa90611685565b80156103475780601f1061031c57610100808354040283529160200191610347565b820191906000526020600020905b81548152906001019060200180831161032a57829003601f168201915b505050505081565b6004818154811061035f57600080fd5b906000526020600020906008020160009150905080600001805461038290611685565b80601f01602080910402602001604051908101604052809291908181526020018280546103ae90611685565b80156103fb5780601f106103d0576101008083540402835291602001916103fb565b820191906000526020600020905b8154815290600101906020018083116103de57829003601f168201915b5050505050908060010154908060020160009054906101000a900460ff16908060070154905084565b600360003373ffffffffffffffffffffffffffffffffffffffff1673ffffffffffffffffffffffffffffffffffffffff16815260200190815260200160002060009054906101000a900460ff166104b0576040517f08c379a00000000000000000000000000000000000000000000000000000000081526004016104a790611702565b60405180910390fd5b600260009054906101000a900473ffffffffffffffffffffffffffffffffffffffff1673ffffffffffffffffffffffffffffffffffffffff168173ffffffffffffffffffffffffffffffffffffffff1603610540576040517f08c379a00000000000000000000000000000000000000000000000000000000081526004016105379061176e565b60405180910390fd5b6000600360008373ffffffffffffffffffffffffffffffffffffffff1673ffffffffffffffffffffffffffffffffffffffff16815260200190815260200160002060006101000a81548160ff02191690831515021790555050565b600060048054905083106105e4576040517f08c379a00000000000000000000000000000000000000000000000000000000081526004016105db906117da565b60405180910390fd5b6000600484815481106105fa576105f96117fa565b5b906000526020600020906008020190508060040160008473ffffffffffffffffffffffffffffffffffffffff1673ffffffffffffffffffffffffffffffffffffffff16815260200190815260200160002060009054906101000a900460ff1691505092915050565b600360003373ffffffffffffffffffffffffffffffffffffffff1673ffffffffffffffffffffffffffffffffffffffff16815260200190815260200160002060009054906101000a900460ff166106ee576040517f08c379a00000000000000000000000000000000000000000000000000000000081526004016106e590611702565b60405180910390fd5b428211610730576040517f08c379a000000000000000000000000000000000000000000000000000000000815260040161072790611875565b60405180910390fd5b600060046001816001815401808255809150500390600052602060002090600802019050838160000190816107659190611a41565b50828160010181905550818160020160006101000a81548160ff021916908315150217905550600160048054905061079d9190611b42565b7f9a021e7b5914130d042464441a16b1fd9778c72145e91ae0d7c0933a7ad7afa5856040516107cc9190611155565b60405180910390a250505050565b60036020528060005260406000206000915054906101000a900460ff1681565b600360003373ffffffffffffffffffffffffffffffffffffffff1673ffffffffffffffffffffffffffffffffffffffff16815260200190815260200160002060009054906101000a900460ff16610886576040517f08c379a000000000000000000000000000000000000000000000000000000000815260040161087d90611702565b60405180910390fd5b6001600360008373ffffffffffffffffffffffffffffffffffffffff1673ffffffffffffffffffffffffffffffffffffffff16815260200190815260200160002060006101000a81548160ff0219169083151502179055508073ffffffffffffffffffffffffffffffffffffffff167f44d6d25963f097ad14f29f06854a01f575648a1ef82f30e562ccd3889717e33960405160405180910390a250565b6000600480549050831061096d576040517f08c379a0000000000000000000000000000000000000000000000000000000008152600401610964906117da565b60405180910390fd5b600060048481548110610983576109826117fa565b5b906000526020600020906008020190508060060160008460028111156109ac576109ab6115c4565b5b60028111156109be576109bd6115c4565b5b81526020019081526020016000205491505092915050565b600260009054906101000a900473ffffffffffffffffffffffffffffffffffffffff1681565b6004805490508210610a43576040517f08c379a0000000000000000000000000000000000000000000000000000000008152600401610a3a906117da565b60405180910390fd5b600060048381548110610a5957610a586117fa565b5b9060005260206000209060080201905080600101544210610aaf576040517f08c379a0000000000000000000000000000000000000000000000000000000008152600401610aa690611bc2565b60405180910390fd5b6000600160009054906101000a900473ffffffffffffffffffffffffffffffffffffffff1673ffffffffffffffffffffffffffffffffffffffff166370a08231336040518263ffffffff1660e01b8152600401610b0c91906115a9565b602060405180830381865afa158015610b29573d6000803e3d6000fd5b505050506040513d601f19601f82011682018060405250810190610b4d9190611bf7565b905060008111610b92576040517f08c379a0000000000000000000000000000000000000000000000000000000008152600401610b8990611c70565b60405180910390fd5b8160040160003373ffffffffffffffffffffffffffffffffffffffff1673ffffffffffffffffffffffffffffffffffffffff16815260200190815260200160002060009054906101000a900460ff1615610c21576040517f08c379a0000000000000000000000000000000000000000000000000000000008152600401610c1890611cdc565b60405180910390fd5b60018260040160003373ffffffffffffffffffffffffffffffffffffffff1673ffffffffffffffffffffffffffffffffffffffff16815260200190815260200160002060006101000a81548160ff021916908315150217905550828260030160003373ffffffffffffffffffffffffffffffffffffffff1673ffffffffffffffffffffffffffffffffffffffff16815260200190815260200160002060006101000a81548160ff02191690836002811115610cdf57610cde6115c4565b5b02179055508160020160009054906101000a900460ff1615610dc65760018260050160003373ffffffffffffffffffffffffffffffffffffffff1673ffffffffffffffffffffffffffffffffffffffff1681526020019081526020016000206000828254610d4d9190611cfc565b925050819055506001826006016000856002811115610d6f57610d6e6115c4565b5b6002811115610d8157610d806115c4565b5b81526020019081526020016000206000828254610d9e9190611cfc565b925050819055506001826007016000828254610dba9190611cfc565b92505081905550610e8a565b808260050160003373ffffffffffffffffffffffffffffffffffffffff1673ffffffffffffffffffffffffffffffffffffffff1681526020019081526020016000206000828254610e179190611cfc565b9250508190555080826006016000856002811115610e3857610e376115c4565b5b6002811115610e4a57610e496115c4565b5b81526020019081526020016000206000828254610e679190611cfc565b9250508190555080826007016000828254610e829190611cfc565b925050819055505b50505050565b60006004805490508310610ed9576040517f08c379a0000000000000000000000000000000000000000000000000000000008152600401610ed0906117da565b60405180910390fd5b600060048481548110610eef57610eee6117fa565b5b906000526020600020906008020190508060040160008473ffffffffffffffffffffffffffffffffffffffff1673ffffffffffffffffffffffffffffffffffffffff16815260200190815260200160002060009054906101000a900460ff16610f8d576040517f08c379a0000000000000000000000000000000000000000000000000000000008152600401610f8490611da2565b60405180910390fd5b8060030160008473ffffffffffffffffffffffffffffffffffffffff1673ffffffffffffffffffffffffffffffffffffffff16815260200190815260200160002060009054906101000a900460ff1691505092915050565b6000600480549050831061102e576040517f08c379a0000000000000000000000000000000000000000000000000000000008152600401611025906117da565b60405180910390fd5b600060048481548110611044576110436117fa565b5b906000526020600020906008020190508060050160008473ffffffffffffffffffffffffffffffffffffffff1673ffffffffffffffffffffffffffffffffffffffff1681526020019081526020016000205491505092915050565b600160009054906101000a900473ffffffffffffffffffffffffffffffffffffffff1681565b600081519050919050565b600082825260208201905092915050565b60005b838110156110ff5780820151818401526020810190506110e4565b60008484015250505050565b6000601f19601f8301169050919050565b6000611127826110c5565b61113181856110d0565b93506111418185602086016110e1565b61114a8161110b565b840191505092915050565b6000602082019050818103600083015261116f818461111c565b905092915050565b6000604051905090565b600080fd5b600080fd5b6000819050919050565b61119e8161118b565b81146111a957600080fd5b50565b6000813590506111bb81611195565b92915050565b6000602082840312156111d7576111d6611181565b5b60006111e5848285016111ac565b91505092915050565b6111f78161118b565b82525050565b60008115159050919050565b611212816111fd565b82525050565b60006080820190508181036000830152611232818761111c565b905061124160208301866111ee565b61124e6040830185611209565b61125b60608301846111ee565b95945050505050565b600073ffffffffffffffffffffffffffffffffffffffff82169050919050565b600061128f82611264565b9050919050565b61129f81611284565b81146112aa57600080fd5b50565b6000813590506112bc81611296565b92915050565b6000602082840312156112d8576112d7611181565b5b60006112e6848285016112ad565b91505092915050565b6000806040838503121561130657611305611181565b5b6000611314858286016111ac565b9250506020611325858286016112ad565b9150509250929050565b60006020820190506113446000830184611209565b92915050565b600080fd5b600080fd5b7f4e487b7100000000000000000000000000000000000000000000000000000000600052604160045260246000fd5b61138c8261110b565b810181811067ffffffffffffffff821117156113ab576113aa611354565b5b80604052505050565b60006113be611177565b90506113ca8282611383565b919050565b600067ffffffffffffffff8211156113ea576113e9611354565b5b6113f38261110b565b9050602081019050919050565b82818337600083830152505050565b600061142261141d846113cf565b6113b4565b90508281526020810184848401111561143e5761143d61134f565b5b611449848285611400565b509392505050565b600082601f8301126114665761146561134a565b5b813561147684826020860161140f565b91505092915050565b611488816111fd565b811461149357600080fd5b50565b6000813590506114a58161147f565b92915050565b6000806000606084860312156114c4576114c3611181565b5b600084013567ffffffffffffffff8111156114e2576114e1611186565b5b6114ee86828701611451565b93505060206114ff868287016111ac565b925050604061151086828701611496565b9150509250925092565b6003811061152757600080fd5b50565b6000813590506115398161151a565b92915050565b6000806040838503121561155657611555611181565b5b6000611564858286016111ac565b92505060206115758582860161152a565b9150509250929050565b600060208201905061159460008301846111ee565b92915050565b6115a381611284565b82525050565b60006020820190506115be600083018461159a565b92915050565b7f4e487b7100000000000000000000000000000000000000000000000000000000600052602160045260246000fd5b60038110611604576116036115c4565b5b50565b6000819050611615826115f3565b919050565b600061162582611607565b9050919050565b6116358161161a565b82525050565b6000602082019050611650600083018461162c565b92915050565b7f4e487b7100000000000000000000000000000000000000000000000000000000600052602260045260246000fd5b6000600282049050600182168061169d57607f821691505b6020821081036116b0576116af611656565b5b50919050565b7f4e6f7420616e2061646d696e0000000000000000000000000000000000000000600082015250565b60006116ec600c836110d0565b91506116f7826116b6565b602082019050919050565b6000602082019050818103600083015261171b816116df565b9050919050565b7f43616e6e6f742072656d6f7665206f776e657200000000000000000000000000600082015250565b60006117586013836110d0565b915061176382611722565b602082019050919050565b600060208201905081810360008301526117878161174b565b9050919050565b7f496e76616c69642073657373696f6e2049440000000000000000000000000000600082015250565b60006117c46012836110d0565b91506117cf8261178e565b602082019050919050565b600060208201905081810360008301526117f3816117b7565b9050919050565b7f4e487b7100000000000000000000000000000000000000000000000000000000600052603260045260246000fd5b7f496e76616c696420646561646c696e6500000000000000000000000000000000600082015250565b600061185f6010836110d0565b915061186a82611829565b602082019050919050565b6000602082019050818103600083015261188e81611852565b9050919050565b60008190508160005260206000209050919050565b60006020601f8301049050919050565b600082821b905092915050565b6000600883026118f77fffffffffffffffffffffffffffffffffffffffffffffffffffffffffffffffff826118ba565b61190186836118ba565b95508019841693508086168417925050509392505050565b6000819050919050565b600061193e6119396119348461118b565b611919565b61118b565b9050919050565b6000819050919050565b61195883611923565b61196c61196482611945565b8484546118c7565b825550505050565b600090565b611981611974565b61198c81848461194f565b505050565b5b818110156119b0576119a5600082611979565b600181019050611992565b5050565b601f8211156119f5576119c681611895565b6119cf846118aa565b810160208510156119de578190505b6119f26119ea856118aa565b830182611991565b50505b505050565b600082821c905092915050565b6000611a18600019846008026119fa565b1980831691505092915050565b6000611a318383611a07565b9150826002028217905092915050565b611a4a826110c5565b67ffffffffffffffff811115611a6357611a62611354565b5b611a6d8254611685565b611a788282856119b4565b600060209050601f831160018114611aab5760008415611a99578287015190505b611aa38582611a25565b865550611b0b565b601f198416611ab986611895565b60005b82811015611ae157848901518255600182019150602085019450602081019050611abc565b86831015611afe5784890151611afa601f891682611a07565b8355505b6001600288020188555050505b505050505050565b7f4e487b7100000000000000000000000000000000000000000000000000000000600052601160045260246000fd5b6000611b4d8261118b565b9150611b588361118b565b9250828203905081811115611b7057611b6f611b13565b5b92915050565b7f566f74696e6720636c6f73656400000000000000000000000000000000000000600082015250565b6000611bac600d836110d0565b9150611bb782611b76565b602082019050919050565b60006020820190508181036000830152611bdb81611b9f565b9050919050565b600081519050611bf181611195565b92915050565b600060208284031215611c0d57611c0c611181565b5b6000611c1b84828501611be2565b91505092915050565b7f496e73756666696369656e7420746f6b656e2062616c616e6365000000000000600082015250565b6000611c5a601a836110d0565b9150611c6582611c24565b602082019050919050565b60006020820190508181036000830152611c8981611c4d565b9050919050565b7f416c726561647920766f74656400000000000000000000000000000000000000600082015250565b6000611cc6600d836110d0565b9150611cd182611c90565b602082019050919050565b60006020820190508181036000830152611cf581611cb9565b9050919050565b6000611d078261118b565b9150611d128361118b565b9250828201905080821115611d2a57611d29611b13565b5b92915050565b7f5573657220686173206e6f7420766f74656420696e207468697320736573736960008201527f6f6e000000000000000000000000000000000000000000000000000000000000602082015250565b6000611d8c6022836110d0565b9150611d9782611d30565b604082019050919050565b60006020820190508181036000830152611dbb81611d7f565b905091905056fea2646970667358221220e22072282cc8db41286e7b318e3b5f36a6c8a2fd816b203278b3265bb1a4169064736f6c634300081b0033a2646970667358221220527849594b8876081963b405a8d610d48b8348ad8d0345ca937990be7fdef92e64736f6c634300081b0033",
  "linkReferences": {},
  "deployedLinkReferences": {}
}